:020000040000fa
:08000000707004000000000014
:020000040000fa
:100200007c440400000000001644040000000000cc
:10021000503a040000000000343b040000000000dd
:10022000c0400400000000009643040000000000ed
:10023000e84604000000000018430400000000002d
:10024000e244040000000000889fbe0080047800a3
:1002500010b180000000e00003003a0061000700d8
:100260000000e0000a00350010b180000900e00045
:1002700002003a000004780006003700000478000d
:1002800009004000570007000000e00001003d00a9
:100290000084eb00080078004f04be000000060058
:1002a0000c02e20004003d000f42ab0002003200ed
:1002b0000f02ab00feff32000040da00feff370005
:1002c0000a00fa0080017800e20f500028003e008a
:1002d00020b18000e10f500008003200e021200032
:1002e0000000e0000500320064212000852120008c
:1002f000a62120008001780004003700c4202000df
:10030000e520200006212000432120001440900019
:100310000004e000040035008009eb001440900068
:100320000074a00010429800154090000028a3001f
:1003300003003a00154090000024a000904298006d
:100340008001eb0007003700154090000008a30073
:10035000fdff320063c078000000fb00000b780056
:100360008301e800828f5100f7ff3a000800370050
:1003700030002000b0bf9f00c3bf9f00d1bf9f00cf
:10038000e2bf9f006a80570000c0da006fb9970093
:10039000020078000080fa00000006000a00fa005f
:1003a00011002000b1bf9f00c0bf9f006a805700ae
:1003b00000c0da004fb897000080fa000000060085
:1003c0000a00fa0051002000b1bf9f00c0bf9f008b
:1003d0006a80570000c0da005fb897000080fa001a
:1003e00000000600800078000000e00004003a00f1
:1003f0006062210010b1880001017800060037001a
:100400000081eb0060822100808f500002003e00de
:1004100011b188000001eb00020078000000060026
:10042000889fbe008a9fbe00010578000100e000a1
:100430000400350008003c000000e000200032000d
:100440000500370060001000e080180002003b004b
:1004500001f02c001a0037000004be006011b80043
:100460006b0920000982cf00020039000882cf000a
:100470000441b000694252000e00320008003b0007
:1004800082817100610164008904d1000884d30075
:100490008b05e8000442e800f9ff3a000500370048
:1004a0000804440089844c008b05e9000442e900fb
:1004b000fbff3a006b0107000af0a70001f0a00063
:1004c0004f05be004f04be0000000600889fbe001e
:1004d0008a9fbe008c1f7800880107001002200050
:1004e00002003b00a0a888008c0137008a0062004f
:1004f0006408e10002003a00a0a8880094013700d7
:100500006108e100fcff32000800be00030478002f
:100510000b00070001f0a1009001070008f0a60001
:10052000040037000001be0091042400b0fd20004b
:100530007900070009f0a70001f0a2008001370050
:10054000889fbe008a9fbe008c1f78006b01070049
:100550007201330003866c006450e1002e0032000b
:100560006420e100330032006150e1002f003200ce
:100570006120e1003100320085855500eb07b000b5
:10058000090020000804200005003700080444008a
:1005900089844c000a0031000603430087834b0026
:1005a0000001530081815b00f8ff33000203be00ad
:1005b0000800a0000804440089844c00f6ff3900bc
:1005c000c639dd00830173000100320013002000f2
:1005d0008904d1000884d3000998a30005003200e3
:1005e0000800a7000300a0008904d1000884d300fc
:1005f0008b05e8008904d1000884d3000001eb00da
:100600000281d2001701070001f0a1000cf0a70041
:1006100001f0a0004a0137006420e1004c013200e3
:100620000801be000200be00f7ff37006120e100b4
:10063000470132006000b800f3ff370000002000df
:1006400001f82700f0ff3700889fbe008a9fbe0098
:100650008c1f7800290107003001330003866c00ed
:100660006450e100240032006420e10027003200e1
:100670006150e100220032006120e10021003200df
:100680008b854200eb07b1000134b800003ab80096
:100690000804420089844a00013ab8000030b800da
:1006a0008880400009014a00040033000000400037
:1006b00081804800020149008b05e900c909dd007d
:1006c000830170000100320013002000c814de0016
:1006d0004814dd004709de001200b200c808de0041
:1006e00008847000df00070001f0a1000cf0a700f3
:1006f00001f0a000120137006120e1001401320076
:100700000801be000200be00f7ff37006150e100a3
:10071000fcff3a000e01370003f0a200889fbe00e4
:100720008a9fbe008c1f7800f4000700fb00330096
:100730006450e1004f0032006420e10052003200ba
:1007400003826c0007003b000905d0000306d000bf
:10075000820f54000c065d000200390002003200d6
:1007600089017800030678008582550004003d0069
:100770000003fd008103fd008502ea008b85420035
:10078000840f720002003b0060001000e08018003f
:100790006011b8000005eb007a28e1000a0039007a
:1007a00006007800c75ddd00f707b200878075009e
:1007b0002d003700828171000a0178006105600018
:1007c0008180d1000080d3008502e900f9ff3b0061
:1007d000060440008784480002003b0060041400c7
:1007e000e0841c000988a300070032008a817100a0
:1007f00082817100610164008904d1000884d30002
:100800008b05e800170037000978a30013003a00b1
:100810000b00e000130034008b05e90008044400dd
:1008200089844c000a4474000978a3000d003a0042
:100830000b00e000070034008b05e90008044400c9
:1008400089844c0001003a000b0020000978a300c5
:10085000f7ff32000001eb000200370082817100d7
:100860000a0178007f0007000cf0a70001f0a0004b
:10087000b30037006420e10002003a00838f6c006f
:10088000b30033000801be000200be00ac00370018
:100890000001eb00160107000400320002002000f6
:1008a00003f8230001f0a7009bff070000000600eb
:1008b0000001be00350107000470a70003f0a1008d
:1008c0006509b100160032000d0035006828e1000e
:1008d00006003500f0ff2f00f1ff27000300e000c5
:1008e00013003b000100280000000500000040004c
:1008f000818048008502e900fcff3a0008003700cb
:10090000f88f420002003c008000eb000000050070
:100910008100d1000080d3008502e800fcff3a008e
:100920000300e00002003b0060001000e0801800bf
:10093000000006001400200029013700f4ff2f00fa
:1009400027013700839f68000100e00002003d009e
:1009500060001000e08018000300e00002003d008d
:1009600060011100e0811900380107004f00e0002c
:1009700002003b0060001000e0801800000006004c
:100980000001eb0041013700889fbe008a9fbe0036
:100990008c1f78000004be00fc0007000478a30050
:1009a00026003a006120e1002500320009f8a3008a
:1009b00025003a006420e10021003200f507b10073
:1009c0000508a300020032000000400081804800ba
:1009d0006044b80003102000020020000000400026
:1009e000818048000805440089854c000a054100c3
:1009f0008b8549000a0550008b85580003003300a1
:100a00000a00be0002047400838474008301d100d4
:100a10000281d300830f7100f0ff3a008904d100f6
:100a20000884d3006001490082017800c1adde0076
:100a3000fb07b0000b000700410037000960a00071
:100a40000800be003e00370012022000a2a8880065
:100a5000f0ff2f00f1ff27003900370004002000cd
:100a6000df00370081002000618055000b003d0051
:100a70000b00200061fe2f000100e1001d0034008a
:100a800082817100610164008904d1000884d3006f
:100a90000000e800faff3a007100200061006400e5
:100aa000030070000200600009003200610444008d
:100ab000e0844c000988a500050032008b05e800a1
:100ac0006808e10002003a008904d1000884d300dc
:100ad000f20f20000258e10005003d00c75ddd0077
:100ae000f907b20089807500080078000000060050
:100af0000bf827008b007800000005000004be0002
:100b0000a20007000003be000405be000200be00f4
:100b10009e000700844f7500000006000200be0022
:100b20006450e100050036006420e1000200360058
:100b30000968a30001003a000800be000160a0009f
:100b40004f0678004f05be004f04be0000000600af
:100b5000f0ff2f00f1ff2700f9ff3700889fbe004c
:100b60008a9fbe008c9fbe000004be008700070065
:100b70000800be00890678006420e1000800390002
:100b8000040032000160a00012022000a2a8880028
:100b90005300370091fc2300b0fd20004e003700c9
:100ba0000006eb0009f0a10003f82300020020007a
:100bb0000800be005fff07000600340001f82300b4
:100bc000000020000801be005dfe07000004be001a
:100bd0002c0020000800be0093e82300320a230006
:100be00054ff0700120034000801be00d1fd2300ad
:100bf000703d2b00c9fe07000005be00b3f32300c3
:100c0000f27a26000800be008ffe070003f82300da
:100c100002002000c0fe07000801be00bffe070062
:100c20000a01be0046fe07000004be000c06e800f4
:100c30000800be0001f0a10002002000039823007c
:100c40003cff07000800be00160035000801be008a
:100c50007dfe07000005be0032cd2c0043fb2300c3
:100c6000aefe0700809fbe001269280003d52b004e
:100c70000a00be0074fe0700620f210013ef2b0074
:100c8000a6fe07000a01be006ffe07004f01be006e
:100c90002bfe07000801be006bfe07000801be0026
:100ca0009efe07000c00e0000b0032000c10a700b5
:100cb00001f0a200b2fd200093fc23006260e1007d
:100cc0000400320022a9200063f023000c10a700ca
:100cd00063f8230091fe07000df0a70001f0a200c9
:100ce0004f06be004f05be004f04be0000000600c8
:100cf000889fbe008a9fbe000003be00230007003d
:100d00008505780082815200020020006220e10007
:100d100004003a00f307b100040035007718e10041
:100d2000040035000600be00140037006000b80063
:100d30000f003700f50f2000faff2f008502d100c9
:100d40000a85d3008301e900fcff3b008184620037
:100d500000046500890f7400f2ff32008582ea000a
:100d60000a85ea0081846200000465003dff0700f7
:100d700007f0a70001f0a0000081eb000200e000f6
:100d80004f05be004f04be0000000600c70ade008b
:100d9000f107b200f50fb20008003200e1cf4200c7
:100da000020032000170a00024000500810f7000d5
:100db000010032000408050044000500810f7000a6
:100dc00002003a00140005008502e900000040001e
:100dd00081c04800fcff3b000170a000240005001a
:100de000889fbe008a9fbe00841f780043ff0700d3
:100df0004f00780011003300f0ff2f00838f6c004c
:100e000006003b00040565000a00a7000800370043
:100e100009f0a6001000200008003700820f5400df
:100e2000838f5c00030039001000200001003e00a9
:100e30000000200009f0a7000000ea004f05be00f6
:100e40004f04be000000e000000006006022b80071
:100e5000060220000000d0008180d2000482d2006f
:100e60008582d2000000a0000202520083825a0054
:100e7000030031000202420083824a000000a10008
:100e80000603e900f3ff3a0000000600889fbe0059
:100e90008a9fbe008c9fbe000206780001f0a7006a
:100ea0000cf0a0000004be00b8ff07000800be0060
:100eb0006420e1000700390002003a00f1ff27003a
:100ec000f0ff2f000160a00012022000a2a88800fd
:100ed0005100370009f0a1000800be000200200008
:100ee00003f8230095fe0700f4ff3c000800be0055
:100ef00002002000039823008efe07000800be00b9
:100f0000300035000200200003f023008bfe0700b4
:100f100005003c000800be000801be00cafd070035
:100f20000005be000e0037000c10a20000002000db
:100f300001f823000801be00f7fd070002002000b1
:100f400003f02300c0fd07000005be008efe070071
:100f50000200200003002c00bbfd07000004be00bf
:100f60000a00be00b2d02800130b2c00ebfd0700d6
:100f70000a01be00b4fd0700020f2500330b240058
:100f8000e6fd0700809fbe000a00be005206220058
:100f900013f02b00acfd0700b2662100f3f623002e
:100fa000defd07000a01be00a7fd07004f01be00dd
:100fb00063fd07000801be00a3fd07000801be0095
:100fc000d6fd07000c00a70007003700b2fd200087
:100fd00093fc23000c10a700d0fd07000cf0a70025
:100fe00001f0a2000c0037000cf0a700020037004f
:100ff00001f0a20004003700b2fd20009304240099
:101000000c10a60003003700b2fd200093fc230063
:101010000c10a700c1fd07004f06be004f05be0023
:101020004f04be0000000600881f7800000478000e
:101030005001be004000be00040040008580480012
:101040000601490087814900009cbe000294be0051
:101050000400e1000588e1000690e1000798e10046
:1010600002003100680044001008e8004f047800d6
:1010700000000600f4874700889fbe008a9fbe00dc
:101080008c9fbe008e1f78000205be000004be00cb
:10109000d4b79f00e5b79f00f6b79f0087bf9f00ba
:1010a0000000eb00c0b79f00b0b79f00a0b79f0043
:1010b00090b79f0080b79f000d042000bfb097003d
:1010c0004fb09700000140000000e0000f003d001d
:1010d0004f08de0000007100c0b79f009e000700af
:1010e00001003d0012002000a100070001003d00aa
:1010f00012002000a6000700b1000700b60007009c
:101100000f004000c8ff0700220037004f08de0034
:1011100000067100ccb79f008f00070001003d0062
:10112000120020009200070001003d001200200084
:1011300097000700a20007000fb297009fb2970028
:101140002fb39700bfb39700a9000700000052001b
:1011500081805a0002015b0083815b0080b79f00a1
:1011600091b79f00a2b79f00b3b79f000007eb00a5
:101170009f0007000020e10001a8e10002b0e100ab
:1011800003b8e100010031001e0020000e005600ef
:10119000c0b79f004fb297000400e0000700350081
:1011a00010002000010020006011b8000804700049
:1011b000898470000a0571008b8571008d06e90035
:1011c000beff3a000400e00003003d00820007007b
:1011d0000f00400094ff07004fa897000000e000b8
:1011e00004003a000fb497009fb497002fb5970002
:1011f000bfb59700940007004f0778004f06be0068
:101200004f05be004f04be004f01b10000000600b4
:10121000881f780018002000881f780095ff0700bd
:101220008f87e9004f04780000000600801feb0064
:1012300090ff07008f87e90000000600889fbe002e
:101240008a9fbe008c1f78006e00070007003d00db
:1012500073000700e00f5b00e08f5b0007003d00bc
:10126000320007000006eb000400370034000700de
:1012700002003d002a0007001c0020007200070049
:10128000e3ff07000203be000002be000c00e00006
:1012900001003200220007000400be000601be006b
:1012a0004f0678004f05be004f04be000000060048
:1012b000889fbe008a9fbe008c1f780051000700e7
:1012c00005003d0056000700e00f5b00e08f5b006b
:1012d00006003d00040037001900070003003d0030
:1012e0006000b8006011b800100007005600070049
:1012f000ceff07000203be000002be000c00e000ab
:1013000001003200060007000400be000601be0016
:101310004f0678004f05be004f04be0000000600d7
:101320006000b8006011b8000000370004025000ef
:101330008582580006035900878359000000060083
:101340000006eb00e00f5200e08f5a00e00f5b0058
:10135000e08f5b00000006000180400090b79f0016
:101360000001eb008fb097000100e00000000600d4
:101370000200700090b79f000180400080b79f007e
:101380000001eb00ffa897000100e000000006004c
:101390000200700080b79f00018040006faa970094
:1013a000cf20de0001007000f0af9f000402420079
:1013b000250007004f18de00000272000000060042
:1013c000e4af9f000804440089844c000a054d00e6
:1013d0008b854d00000006003fb29700cfb297000a
:1013e0005fb39700efb3970000fe2f0000000600e8
:1013f0003fb09700cfb097005fb19700efb1970073
:10140000000006000205be000004be00e00f500010
:10141000e08f5800e00f5900e08f590000000600ef
:101420006000b8006011b8000804500089845800ba
:101430000a0559008b8559001c002000e00f52005e
:10144000e08f5a00000006000800be000a01be003e
:1014500000000600889fbe008a9fbe008c9fbe00d1
:101460004400f800070f2000270288003400f8002d
:1014700007f02f000338e10004003200270280004b
:101480004700b30027028800a3018800811f78006d
:1014900019002000804cdd001300200002047800b9
:1014a000800678008904d100424edd0001057800f5
:1014b0000302e90004800800170000008a054600c6
:1014c0004218dd000902e900048008001000000055
:1014d000000000004620c3003b025200df35c1007f
:1014e000080440001381c200ab825200264dc500a3
:1014f0003e85c400bb00cd00bb80cd003a00ca00d1
:101500002a80ca000700c9000580c900ba00cd00c2
:10151000ba80cd000a054600020478008301d0009d
:101520008d06e900dfff3c004f0078003400f90031
:101530004400f9004f06be004f05be004f04be0038
:10154000000006004600f8005000f80002202000cd
:101550003202880002002800130020008019dd00fc
:101560000281710082028800010078000101780088
:1015700026002000470020008301e90003800800c6
:10158000070000000110e100040034001102be0059
:1015900092087800e2307b000489be00878040001a
:1015a000121978005000f9004600f900000006000a
:1015b0000c00fa00889fbe0000047800cfb09700ae
:1015c000f0ff2700d0bf9f008004eb0099bf9f0071
:1015d00088bf9f00a8bf9f00200c2000b0bf9f00c5
:1015e0007881570070805700d70007000fb8970028
:1015f000094878000fb897000804500008007800e8
:101600004f04be000080fa00000006008000780051
:101610003004e000feff3a00010050000000e90045
:1016200000000600889fbe008a9fbe008c9fbe00ff
:1016300000017800e16021001100e0000b003a0099
:101640002061210070b0880050b0880091b08800ff
:1016500061b08800214090000004a000a0409800e4
:10166000614090000004a000e0409800e7004100c5
:10167000c208de00c20cdd0064b080006d62210093
:10168000608221000d05500022002000811f78009b
:10169000110009000205d80000067800cf0078008c
:1016a000c308dd00e48540008001eb006662210094
:1016b000e56021000100370001027800244090001d
:1016c0000008a300020032000a003700110a780067
:1016d00094007800214090000008a300fbff320036
:1016e00009014200828f500002003900840f51002e
:1016f0004600310094007800848f5000eeff3e00d9
:10170000868f500002003900858f5000eaff3900b3
:1017100050b08000800f52004f003a00858f50007b
:101720004d003a008301e800e18f5100e2ff3600ee
:101730008c8f5400040036008a8f54000200310060
:101740000b04780012003700614ab8006151b900fb
:10175000b0ff2f00010020000200500083805800dd
:10176000800f5200818f5a00020035000904780072
:10177000070037000d8054009282210002004000d3
:10178000110009000a80d8000a80b900000478001e
:1017900008007800acfa070080017800e10f4000f3
:1017a0002d00320050b080000308780052b0800055
:1017b00064004100a2409000808f5100020032007e
:1017c0000104a000010037000104a100214198009c
:1017d00008804100640050008009780050b0880003
:1017e000e26021000208780051b0800021409000a2
:1017f0000004a000a0409800234090000004a10035
:10180000a041980002027800a7ff370062b088006c
:10181000828f50000900360092007800806021001d
:10182000a24190000348780031b088001409780084
:101830008040eb0060b080002140980060b08000e4
:10184000000a7800244090000004a0002042980084
:1018500064004200010037000000eb004f06be00ac
:101860004f05be004f04be0000000600640050009b
:1018700060b08800a04090000104a10021409800c1
:1018800000000600889fbe008a9fbe000005780009
:10189000e401500013001000c285de0023409000d8
:1018a0000008a3000400320063b0880023409000c9
:1018b0000004a100a04198000100780059ff070032
:1018c000000478000000e000170032008a0f50008a
:1018d0001500320060b8970008005000c284de0096
:1018e000898f550001003600890578004259dd00d6
:1018f0008a00780008007800c80207008a0f5400a8
:10190000090031004248dd00000044008a0f500009
:10191000050036000a0050000000440032b080008c
:1019200043b080000288be00080078004f05be006a
:101930004f04be000000060000047800be0207004d
:101940000800780056fa0700fe874700889fbe000f
:101950008a9fbe008c9fbe008e1f7800f0b79f004c
:101960000107780082bf9f000000eb00a0b79f0036
:101970009f0237008006eb0050c2b30080cf5000ba
:10198000090032000100fb00ffb09700b802070019
:10199000e10f400096023200afb097008100e800ee
:1019a000a1b79f00920237009e407800d0c2b300da
:1019b00080cf50000c00320007003c006d4050000a
:1019c00080cf50000a0032006b40400080cf5000b2
:1019d0000e003a000800370000c3b30080cf50006b
:1019e0000a003a00060037000d30a000050037005d
:1019f0000d00a000030037000d10a000010037000b
:101a00000d20a0000e07e800e7ff37000d18a30027
:101a1000010032000d00a1000d38a30001003200ca
:101a20000d20a1000100fb0002fd2f00020040007c
:101a3000e90f50000e003e000002eb00c4b79f000b
:101a400082017800cfb297006a28b9001e01fb001e
:101a50000001410003014100c2b79f005e00fb008e
:101a600003004000e90f50000b003e00f5ff370077
:101a70000006eb00ccb79f00a0c2b30080cf50009f
:101a800005003a000fb89700c000780080bf9f00a3
:101a9000c1b79f000e07e8000001eb00b2b79f003e
:101aa000e0c2b3009e4f100018003a000de0a00005
:101ab0008e00e80064405000914f10000200320098
:101ac000010778000c0037000fba9700c4027800b5
:101ad00084bf9f00b5b79f000e87e8000b0037005a
:101ae0003fb697006a60b900000041000300400063
:101af000b0b79f000e07e8001e01fb0003fd2f009a
:101b000003004100e90f5000f5ff3600be407800a9
:101b1000e1d79f00c0c6b30080cf50002200320042
:101b20000f003c006940500080cf50007700320029
:101b300004003c000104e000310232006b40500020
:101b40000f00370040c6b30080cf50009300320032
:101b50006540400080cf50008b003a008f00370076
:101b600030c7b30080cf50001a00320007003c009d
:101b70006440500080cf5000110032000040e80067
:101b800080cf500080003a000f00370050c7b300ec
:101b900080cf5000800032006340400080cf500072
:101ba00079003a0009003700000028000d48a30022
:101bb00001003a000001200080867600d3ff370044
:101bc0000d60a000750037000d50a0000d70a00042
:101bd000720037008fb897004100780081bf9f00e6
:101be000000478000000e00001003a00685b21007a
:101bf0008004eb00010037008104e80089007800d0
:101c0000088044001004e000fbff3a003fb1970059
:101c10000200e00003003200890f51000100310092
:101c2000820478000002eb00e4af9f00cfb297007f
:101c3000898f52000200360009805200e0af9f00f9
:101c40004368de00e10660001b003a000d067800e4
:101c500009003700ffb097000002200004020700cf
:101c6000e10f4000030032002fb097000000e800b1
:101c7000a0b79f000c06e800efa89700810f560060
:101c8000f4ff3a000081eb00e2af9f000a0037004a
:101c9000880078003100fb0001047800ffb0970055
:101ca000f3010700e10f4000030032002fb297005c
:101cb0000402e800a4b79f000900e900800478004e
:101cc000e10f4000f2ff3a000006eb000d00e000db
:101cd0000a003a00c6013700ffb09700000220005a
:101ce000e3010700e10f400003003200afb29700ac
:101cf0008502e800a5b79f000c06e8006fa89700d2
:101d0000800f5600f4ff3a00b90137008fb89700f2
:101d10004100780081bf9f00cf80de000101780084
:101d2000820178000205be000004be000203be006e
:101d30000002be004822de00482edd0004027600cc
:101d4000e4d79f000d48a3000a0032000404e0001d
:101d500008003200e14f42000600320071fd2f0002
:101d600001804700044878001840980029002000ae
:101d700002003700f0d79f001900200072fd2f00ed
:101d800002844700a1ff370064fd2f000484470050
:101d9000190020009dff37000d0cb3000d007800e6
:101da000000cb20028003a000d00e00005003d00e4
:101db0008fba97004505be004504be0085bf9f0051
:101dc000140037000d48a3000b0032000fbe97002f
:101dd0004c00be008cbf9f004f89de00cf91de001b
:101de0000002be0002037800820378000605be00f0
:101df0000404be00070037008fb897004100780048
:101e000081bf9f0000047800cfc4de000905780080
:101e10008a057800e00f5400e08f5c00e00f5d0061
:101e2000e08f5d001f003d003d00b3006000b80082
:101e30006011b80008045000898458000a05590050
:101e40008b855900170037000d00e00005003d00ac
:101e50000fb997004205be004204be0082bf9f003a
:101e6000100037000d48a300070032000fba97009a
:101e70004400be0084bf9f006011b8000205be0090
:101e80000004be00070037008fba970045007800b5
:101e900085bf9f0000047800090020000a00200090
:101ea0000b0020003fb697000c00e00007003a004e
:101eb000e00f5400e08f5c00e00f5d00e08f5d00fc
:101ec00002003a0010002000b0b79f008d0078009b
:101ed000010cb200e1b79f0000042000808f500089
:101ee0003000320003003c000100e0000800320036
:101ef00040003700000820006fb19700800f5100ac
:101f000014003200000c2000800f510039003a000c
:101f100014c0b300655121000b0037000400fb0022
:101f20004300dd00050040005001be004000be003f
:101f30000040e10001c8e10002d0e10003d8e10067
:101f40002b0039000442e800f44f5200f3ff3a003e
:101f50002700370000012000010020006011b800b8
:101f600014c0b3000040e10001c8e10002d0e1006c
:101f700003d8e1001e003900450020000000d00019
:101f80008180d2000281d2008381d2008502e900e3
:101f9000faff3a000442e800f04f5200f1ff3a0025
:101fa0001300370080002000010020006011b800fd
:101fb00014c0b3000040e10001c8e10002d0e1001c
:101fc00003d8e1000a0039003c0020000000d000e6
:101fd0008180d2000281d2008381d2000c06e90008
:101fe000faff3a000442e800f54f5200f1ff3a00d0
:101ff000e4d79f00efd097000100fb003fb19700ae
:10200000820f500002003d00e2d79f00040037001d
:102010003fb29700800f520001003d00b0b79f0013
:10202000cfb297000500e000040032006380660034
:10203000020032008502e900c5b79f000de8a30049
:102040000b0032004fb697003fb09700800f56004c
:1020500003003c008000eb00c1b79f000400370084
:102060004fb197003fb2970004015100c2b79f00e3
:10207000efd297000500fb000006eb00dcaf9f00ed
:10208000cfb09700808f50000200340000805000d5
:10209000d0af9f000d28a30037003200e18066001a
:1020a0000d18a3000c003200d00220000100e00057
:1020b00001003a000080e900ffb09700ec00070043
:1020c000e10f40000e0032002fb197000201e8003e
:1020d000a2b79f000a0037000100e00008003200ac
:1020e000ffb0970000022000e1000700e10f400070
:1020f000030032002fb297000402e800a4b79f004b
:10210000dfaa97000500e0000f0032000006eb0098
:10211000ffb0970000032000d5000700e10f40004a
:10212000030032002fb097000000e800a0b79f0026
:102130000c06e800dfa89700810f5600f4ff3a0074
:102140000001eb00d2af9f003fb29700c320dd003b
:10215000e05021008080400091b79f004220dd00c8
:102160006400500080b79f006320b900f0af9f006b
:102170006306500084003700dfaa97000500e000e6
:1021800011003200688066000f003a0000067800f7
:10219000ffb0970000022000b5000700e10f4000eb
:1021a000030032002fb097000000e800a0b79f00a6
:1021b0000c06e800dfa89700810f5600f4ff3a00f4
:1021c0000001eb00d2af9f00e18066000d18a30074
:1021d0000c003200d00220000100e00001003a00b3
:1021e0000080e900ffb09700a1000700e10f400068
:1021f000d5ff32002fb297000402e800a4b79f0079
:10220000d1ff37000100e000cfff3200ffb09700a0
:102210000002200096000700e10f4000caff3200d4
:10222000afb297008502e800a5b79f00c6ff370050
:1022300000042000efb09700808f50003100320082
:1022400003003c000100e000080032003e003700bf
:10225000000820006fb19700800f5100110032007c
:10226000000c2000800f510037003a001fb097008b
:102270003002be002003be000800be000a01be00fe
:10228000e3fb0700a4002000050020006033b80035
:10229000e6fb070004c3b30004424000e4d79f00fc
:1022a00029003700d55b2100d5b79f000d58a3004a
:1022b00002003a00e05c2100d0b79f00140020002b
:1022c000050020006033b8008fb097008100e9005e
:1022d000050033000402d0008582d2000683d200bc
:1022e0008783d200f9ff37000800be000a01be0054
:1022f000c7fb07006f0060005fb197006240780085
:102300001000370014002000050020006033b800e2
:102310000c0078000000e900050033000402d00042
:102320008582d2000683d2008783d200f9ff37006e
:102330000800be000a01be00b5fb07006740600050
:102340000043b000e0d79f00efd097000100fb00f2
:10235000ffb0970046000700e10f40000300320085
:102360002fb197000201e800a2b79f001fb29700ab
:102370006802520094b79f008fb29700e482520027
:1023800085b79f0063065600d0ff2f003fb197002e
:102390000090b9007faa970000004200630050003f
:1023a000800f5600a2ff3a000d38a3001000320043
:1023b000dfaa97000500e0000d0034000006eb00e6
:1023c000ffb097000002200029000700e10f400045
:1023d000030032002fb097000000e800a0b79f0074
:1023e0000c06e800dfa89700810f5600f4ff3a00c2
:1023f000be407800e1d79f000104e0005dfd3a0097
:102400002fb097004f0778004f06be004f05be0063
:102410004f04be00ef01b100000006008001eb0098
:102420000200370061f079008301e800828f5100db
:10243000fcff3a0000000600881f7800e0b0800032
:102440000000e0000100320000000100285e2100d1
:10245000080078004d0007006c0444006060210013
:10246000800f5400faff3a004f0478000000060085
:10247000889fbe000001780001047800b100900040
:102480000118a3003d0032000198a30003003a00a8
:10249000180090000000e00038003a000190a00011
:1024a0003104980082047800f90fb20018009000ff
:1024b0000000e00002003a0028009000000c7800c4
:1024c000ea8f540006003a00380090000078a3001c
:1024d00003003a0088007800d0002000e4ff0700e5
:1024e0009800900058009000808f50000b00320040
:1024f0000100e800100498001800780009587800de
:10250000000c780011c0b300a061210001487800e0
:10251000ea8f540006003200190037008800780066
:10252000094078005100070080047800140037004b
:10253000380090000088a3001100320018019000bc
:10254000a8009000480090005df7070098009000f8
:10255000810f500004003200380090000003b300e7
:10256000300498008084eb000000eb001004980019
:1025700028009000000c7800010037008084eb00f8
:10258000090078004f04be0000000600889fbe00ce
:102590008a1f78000004780030009000630060001b
:1025a000240032000800780073000700380590000e
:1025b00080ef2f0000006500300498002800900094
:1025c0000000e00004003200e804650002003a0068
:1025d000a200070029049800480090006ff7070048
:1025e000e10f400013003200b80090000102b20079
:1025f00010003a000ac8a3001800320000b18000a1
:102600000000e0001500320000017800810478002d
:10261000012a200012289000880f50000700320085
:102620004205b0004905b000818f54000b00320014
:10263000f8ff37000080eb00090037000200780047
:102640005ff7070000b18000090040008000eb0048
:102650001128980001007800010037000000eb000d
:102660004f0578004f04be00000006000200fa008b
:10267000889fbe00a0ff9f0001047800b100900079
:10268000810478000904b200020032000000fb005f
:10269000360037000118a30005003a000103b3001b
:1026a00031049800190498000080eb002f003700d7
:1026b000580090000000e00006003a00480090003a
:1026c00012002000e6805700fdf60700190498006c
:1026d00024003700280090000000e00008003a00c5
:1026e0006061210020049800000c78002000200088
:1026f00050049800100498000130a00031049800a4
:1027000018019000a800900048009000ecf6070027
:1027100028009000000c78000080eb001004980066
:1027200018007800aff8970001587800000c780086
:102730002ff89700ea4f50000a003a003800900046
:102740000088a3000700320018019000a800900044
:1027500048009000daf6070019049800a8009000dd
:10276000010c7800aff897000100fb004f04be0099
:102770000080fa0000000600881f7800000478003e
:10278000300090000008a3000700320080007800ad
:102790000120b20004003a0011049800a800900043
:1027a000010c7800170037000018a3001900320050
:1027b0000098a30017003200a80090000100e0007c
:1027c00014003200180190000200e00011003200f5
:1027d00048009000baf6070098009000810f500062
:1027e00003003200380090000003b300300498006a
:1027f0000000eb001004980028009000000c780006
:10280000380090000058a300020032000080eb0066
:10281000010037000000eb004f04780000000600c4
:10282000f1b080000100e0000300320011007800e8
:10283000f0b08800030037002000200082f6070077
:1028400080007800e18f400002003a00906e260080
:10285000a0a888000100780000000600f1b0800008
:1028600001087800f0b08800000006005200fa006d
:102870006d060700bb06070040c7bf00614060004f
:102880000004e000020032004007a9000000fe0042
:102890001b060700000f78008e80e8001e007800fd
:1028a000801f780000402f00801f78000100780012
:1028b0003ffb0700e48757000e80e80053fb07004a
:1028c000800078000e80e800000707001e00e0008e
:1028d00002003a00fd09070029003700100020001f
:1028e0009e0f100002003a00260007002400370067
:1028f000200020009e0f100002003a00b4040700e0
:102900001f003700300020009e0f100002003a0028
:10291000190507001a003700400020009e0f100024
:1029200002003a005119070015003700500020003e
:102930009e0f100002003a005a19070010003700dd
:10294000600020009e0f100002003a00f4190700fa
:102950000b003700700020009e0f100002003a00ac
:10296000261a070006003700800020009e0f100086
:1029700002003a00091a070001003700521e070042
:10298000ffff37001800fa00889fbe008a9fbe0034
:10299000250607000040eb006f0d0700f405070057
:1029a0001100200080002000591407008d0b070043
:1029b0008000eb0080002000551407000000eb00b1
:1029c00040079800803e200001002000500798003a
:1029d00061079800000037000000eb00c209070003
:1029e000300f980010002000bf090700200f98004a
:1029f00020002000bc090700802eb000100f9800b6
:102a00001e0890000000e00006003d009e089000b7
:102a100080da2f00808f5000020034000000eb00ad
:102a2000100f98003e0890006103b9003e08900026
:102a30006102b9008600780004007800000db8003b
:102a400005b0b9000b0178000001410007a0b900f2
:102a500000014100820578002e0890006104b90051
:102a60002e0890006103b900880078000600780005
:102a7000000ab80007c0b900050178000001410054
:102a800009b0b90000014100820278000a05420045
:102a90008b854a001e0890006104b9001e08900052
:102aa0006103b9008800780006007800000ab800c9
:102ab00007c0b900050178000001410009b0b90064
:102ac00000014100820278000a0042008b804a0027
:102ad00070079800010f98005e009000ee009000d3
:102ae000c289de004e0add004201de0002017200f2
:102af0007e0090008e089000020040008380480015
:102b0000500798006107980090a680000000e00040
:102b10000a003a004e0090000000e000070032007a
:102b20000000eb00400798008000eb0080002000d0
:102b3000f71307000000eb00511507005e0190003d
:102b4000ee019000703e200001002000800f510037
:102b5000818f590013003c004e009000e10f50009f
:102b60009dff320010002000400798001000200058
:102b700080a6880090a680000000e000fdff3a00db
:102b800001f5210040b12200860507001000200059
:102b90003b1507008000eb0080002000dc130700dd
:102ba0008dff37005e019000ee0190000090200044
:102bb000d1032000800f5100818f590086ff34001f
:102bc0004e009000e20f500083ff320020002000f2
:102bd000400798001000200080a6880090a6800082
:102be0000000e000fdff3a003e089000630f600027
:102bf0001e00e00004003a00018420000000eb0009
:102c0000680507000a003700100020009e0f100022
:102c100004003a00016e2000408420006105070096
:102c20000300370041d5200060f220005d05070059
:102c30000000eb00121507003e089000cf80de0078
:102c4000f7f507000004be002e089000cf80de00dc
:102c5000f3f507000801be001cf6070010079800f6
:102c6000210798003e089000cf80de00ecf50700b9
:102c70000004be002e089000cf80de00e8f50700bb
:102c80000801be0011f60700b2fd200093042400e5
:102c90002bf6070002002000030824006af6070054
:102ca000b2fd200093fc23009cf60700b2fd20003b
:102cb00093ec230099f60700f5f60700fcf60700f1
:102cc00030079800030037003e0090006800500075
:102cd000300798003e009000e80f5000faff3c00db
:102ce000030037003e009000680040003007980065
:102cf0003e0090000000e000faff35003e0090002a
:102d0000110020008213070033ff37000400fa008f
:102d1000889fbe008a1f78000000eb008065880055
:102d2000570f07000004e000fdff32000000eb0039
:102d3000000f78000b0037001e0478001e0078009a
:102d400013100700cf80de00b5f507000001be00bc
:102d5000c240dd0020cb2000008040000288be0081
:102d60001e0fe800200020009e0f1000f2ff34002c
:102d70000000eb00000f7800490037000000eb0076
:102d800010079800150037001e0478009e0490007c
:102d90001e007800c200dd0020cb20000080400033
:102da0001000be00a2702d0033c2230026f60700db
:102db0000001be004006200000c0b900090040002c
:102dc000c200dd0000802000008040000288be00bc
:102dd0001e0090000000e800100798009e00900080
:102de00030062000808f5000e7ff34001e05780079
:102df0001e007800c200dd0020cb200000804000d3
:102e00001004be001e007800c200dd0020cb2000b0
:102e1000008040001000be00d2cc2c00c3dc2b0090
:102e200009f607000001be000800be003bf60700df
:102e30000001be00c250dd00a0cc20000080400098
:102e40000288be001e0578001e007800c200dd006a
:102e500020cb2000008040001004be001e0078003f
:102e6000c200dd0020cb2000008040001000be002a
:102e7000d2cc2c00c3dc2300f3f507000001be0018
:102e80000800be0025f607000001be00c250dd00ac
:102e9000e0cb2000008040000288be001e0fe8004a
:102ea000200020009e0f1000b4ff34004f05780072
:102eb0004f04be000080fa00000006000000fa0087
:102ec0000000eb0000a78800ed0e07000004e00002
:102ed000fdff32000080fa00000006000e00fa003c
:102ee0000000eb00aa0f0700800078000e80e800c9
:102ef0000108780010002000a50f0700800078006e
:102f00000e80e8001100980020002000a00f0700ac
:102f1000800078000e80e800210098000e80e80014
:102f200010007800cf80de003df50700f2658000dc
:102f3000036680000042eb00244f98007df60700f6
:102f40000000e000010035000200370010c0b300af
:102f5000204f98002e4890000004a2000004e000da
:102f600009003a000e80e80010007800cf80de00f3
:102f70002bf5070052668000636680006ff607003d
:102f80000000e00037003c000e80e80010009000d8
:102f9000cf80de0022f507001266800023668000e5
:102fa0000042eb00144f980062f607000000e000ba
:102fb000010035000200370010c0b300104f980028
:102fc0001e4890000004a2000004e00009003a003e
:102fd0000e80e80010009000cf80de0010f50700a2
:102fe000726680008366800054f607000000e000ef
:102ff0001c003c000e80e80020009000cf80de0026
:1030000007f5070032668000436680000042eb004f
:10301000044f980047f607000000e000010035006b
:103020000200370010c0b300004f98000e48900017
:103030000004a2000004e0000d003a000e80e80049
:1030400020009000cf80de00f5f40700926680003b
:10305000a366800039f607000000e00001003c0094
:1030600003003700140020006407980002003700b6
:103070000000eb00600798006e029000040f7800db
:103080000e80e800540007001e0078000080fa005f
:10309000000006000400fa00889fbe000000eb005c
:1030a00010079800460037000000eb00000f780082
:1030b0003d0037001e0490009e0478009e009000a2
:1030c0001e017800400620000088b9000200400080
:1030d00080004000c0cd200000804000100078003b
:1030e000cf80de00cef407000002be001e0090007c
:1030f000c200dd0020cb2000008040001001be0097
:103100000400be0084f50700e9f50700000178001f
:103110004006200000c0b9000900400080004000c7
:10312000c0cd200000804000020878009e00900082
:103130001e017800400620000088b900020040000f
:1031400080004000c0cd20000080400010007800ca
:103150000000e00013003d009e0190001e02780078
:103160009e0090001e017800400620000088b900f3
:103170000200400080004000c0cd200000804000e0
:10318000100078000001ea00400620000098b90015
:103190000400400080004000c0cd200000804000be
:1031a000020878001e0fe800300620009e0f100075
:1031b000c0ff34001e0090000000e80010079800d7
:1031c0001e009000e20f5000b7ff34004f04be0015
:1031d0000080fa00000006000400fa00889fbe008c
:1031e0008a1f780010079800250e07000004e000f1
:1031f000fdff32000000eb00000f78006e0037008a
:103200001e0478001e007800c200dd0020cb2000e4
:10321000008040001002be009e00780082658000a1
:10322000400620000088b90002004000c200dd0016
:1032300000802000008040001001be000400be009d
:1032400035f507000001be00c240dd0020cb2000a4
:10325000008040000288be001e047800896580005e
:103260001e00780000004000800078001e009000e2
:103270000080400010007800cf80de0068f4070076
:10328000a2702d0033c22300eff407000001be003e
:103290004006200000c0b90009004000c200dd0067
:1032a00000802000008040000288be001e047800dc
:1032b0001e007800c200dd0020cb2000008040000e
:1032c0001002be009e00780082658000400620004b
:1032d0000088b90002004000c200dd00008020002c
:1032e000008040001001be000400be000bf5070086
:1032f0000001be00c240dd0020cb20000080400065
:103300000288be001e0578001e007800c200dd00a5
:1033100020cb2000008040001004be001e0078007a
:10332000c200dd0020cb2000008040001000be0065
:10333000d2cc2c00c3dc2b00c3f407000001be007c
:103340000800be00f5f407000001be00c250dd0019
:10335000a0cc2000008040000288be001e0578003e
:103360001e007800c200dd0020cb2000008040005d
:103370001004be001e007800c200dd0020cb20003b
:10338000008040001000be00d2cc2c00c3dc230023
:10339000adf407000001be000800be00dff4070026
:1033a0000001be00c250dd00e0cb200000804000e4
:1033b0000288be001e0fe800200020009e0f1000b3
:1033c0008fff34008165800020062000808f500030
:1033d00004003c00806580000000e80080658800f3
:1033e000020037000000eb00806588004f05780080
:1033f0004f04be000080fa00000006000c00fa0036
:1034000040079800510798006000b8002007980016
:10341000310798004e009000e20f500030003e004f
:103420005e0090000000e0002d003200de00900001
:1034300040062000808f500029003e000000eb0075
:103440001007980001a780005e00900000805000e7
:103450005006b00042062000110009000280d8008a
:103460008000fd00000f780019003700ce009000aa
:103470001e017800400620000088b90002004000cc
:1034800080004000c0cd2000008040001000780087
:103490006101b9002e009000be00900000004100c4
:1034a0008180490020079800310798001e00900095
:1034b0000000e800100798001e00e8004206200007
:1034c000110009000200d8008000fd00000f780004
:1034d0009e0090005e009000808f5000e3ff390056
:1034e0005e0090006101b8002e009000be009000c8
:1034f00014f507000080fa00000006001000fa0032
:10350000110020000000eb00b200070070079800d7
:103510007e009000cf80de00c1f307000200200093
:10352000030c240005f507000000e00001003d0049
:103530000500370060e5200091fc2300200798007b
:1035400031079800170037007e009000cf80de0022
:10355000b3f3070002002000030c2c00f5f4070071
:103560000000e000010034000500370060e52000a5
:1035700091fc2b00200798003107980009003700c4
:103580007e009000cf80de00a5f30700020020003f
:10359000030c2400eaf30700f9f407002007980061
:1035a000310798006011b8002e009000be00900016
:1035b000e2f407000000e00001003c003a003700a0
:1035c0001100200020002000820007006007980002
:1035d0006e009000cf80de0091f307000200200013
:1035e000030a2400d5f407000000e00001003d00bc
:1035f0000400370060e5200091fc2300008fbe002e
:10360000150037006e009000cf80de0084f30700c5
:1036100002002000030a2c00c6f407000000e000ae
:10362000010034000400370060e5200091fc2b000d
:10363000008fbe00080037006e009000cf80de00d3
:1036400077f3070002002000030a2400bcf3070000
:10365000cbf40700008fbe00f298200063f0230037
:103660001e00be00b5f407000000e00001003c00b1
:10367000080037002e019000be01900060e5200098
:103680009104240024f40700400798005107980093
:103690003e0037002e009000be00900040079800ca
:1036a0005107980039003700210020000000eb008e
:1036b00048000700600798006e009000cf80de0091
:1036c00057f3070002002000030a24009bf40700c0
:1036d0000000e00001003d000400370060e520002c
:1036e00091fc2300008fbe00150037006e00900093
:1036f000cf80de004af3070002002000030a2c00fe
:103700008cf407000000e0000100340004003700e2
:1037100060e5200091fc2b00008fbe000800370000
:103720006e009000cf80de003df307000200200015
:10373000030a240082f3070091f40700008fbe0003
:10374000f298200063f02b001e00be0079f4070001
:103750000000e00001003500080037002e01900055
:10376000be01900060e5200091042400eaf3070008
:103770004007980051079800040037002e00900081
:10378000be00900040079800510798006011b800f3
:103790004e009000de00900066f407000000e0009c
:1037a000010035000700370062e52000930c24007b
:1037b0004e009000de009000d8f30700400798000c
:1037c000510798004e009000de0090000080fa0043
:1037d000000006001a00fa00889fbe00300f980013
:1037e000410f980090ff2f003007980070002000d4
:1037f000200798008000200010079800c0052000d6
:10380000000f78006000b80040079800510798004a
:103810003e009000100f9800410037006000b80093
:1038200060079800710798009e009000010f9800b3
:1038300028003700be0890000e09900040062000c6
:103840000088b9000200400080004000c0cd200088
:1038500000804000100078006104b9004e0990001b
:103860008e0890001e0890008081400040062000d5
:103870000090b9000300400080004000c0cd20004f
:1038800000804000100078006102b90088007800d4
:1038900004007800000bb80005c0b90007017800eb
:1038a0000001410009a0b900000141008203780035
:1038b0006e009000fe0090000000430081804b00ed
:1038c00060079800710798000e0890000000e8005b
:1038d000000f98000e0890009e0f5000d5ff350095
:1038e0006e019000fe0190004e009000de009000fe
:1038f000800f5100818f5900060034006e00900047
:10390000fe00900040079800510798009e08900024
:10391000210f98001e0890000000e800100f98008a
:103920009e0890002e009000808f5000bbff350055
:103930002e0890004f04be000080fa000000060030
:103940000a00fa0030079800410798006000200044
:103950002007980062e5200093ec23003e009000d1
:10396000ce009000f5f307000000e00001003c00ed
:1039700002003700700020002007980002ac2c00e5
:1039800063f923003e009000ce009000ebf30700a7
:103990000000e00001003c00020037009000200021
:1039a00020079800c21e2500b3ff23003e009000b0
:1039b000ce009000e1f307000000e00001003c00b1
:1039c00002003700c000200020079800b2c82e0077
:1039d000f30224003e009000ce009000d7f30700d1
:1039e0000000e00001003c0002003700a0002000c1
:1039f0002007980012022300230624003e009000b6
:103a0000ce009000cdf307000000e00001003c0074
:103a100002003700d000200020079800b29d23004c
:103a2000a30824003e009000ce009000c3f30700de
:103a30000000e00001003c0002003700e000200030
:103a40002007980062ba2500330a24003e00900047
:103a5000ce009000b9f307000000e00001003c0038
:103a600002003700f00020002007980012d727003e
:103a7000c30b24003e009000ce009000aff307007f
:103a80000000e00001003c00020037006000200060
:103a900020079800110020002e0090000008dd0093
:103aa000201688006000b800008fbe0004003700b8
:103ab00010002000010020001e0f40005e9748000b
:103ac000f0d3200031002000be0f1000ae8f180090
:103ad000f7ff34000000eb00201688000080fa0099
:103ae000000006000600fa00100798002107980061
:103af00062e52000930424001e009000ae009000b8
:103b00008cf307000000e0000100350014003700ce
:103b10000000eb00ee0f0700803e20004d0f070075
:103b200080c12f00880f07001e009000ae0090009b
:103b300062e52000930c240081f2070002002800b7
:103b4000234a2400c0f2070059f30700000f780051
:103b5000db0f07009e0f5000fdff350016003700f9
:103b60000000eb00e40f070080c12f00390f0700b1
:103b7000803e2000740f07001e019000ae019000ef
:103b800060e52000910c2400e3f2070062e52000cc
:103b9000930c24006af2070002002800234a240044
:103ba000a9f2070042f30700000f7800ce0f0700cc
:103bb0009e0f5000fdff35000000eb00250f0700b1
:103bc0000000eb00600f07000080fa000000060014
:103bd0000600fa0010c0b300df080700140f07004a
:103be000240d070049fc070048fc070010002000d6
:103bf0002007980002003700b8fc07002007980053
:103c00002e0090000000e000fbff3a00abfc070034
:103c1000a90b07001ffd070038fe0700008fbe003c
:103c2000a10b07001e00be0045ff07001e00be00de
:103c3000acff0700ecff37000000fa00e6c2bf004f
:103c40000080fb004600de00614060000081fb0058
:103c5000e7c2bf000080fb000000d10061406000af
:103c60000080fb000000400080007800e7c2bf0039
:103c7000614060000080fb000080400000004000c8
:103c800080007800e6c2bf000080fb004700de0035
:103c90000080fb0000804000000040000000410068
:103ca0000080fa00000006000400fa00881f780077
:103cb000100798000000eb00000f780009003700a3
:103cc0001e00780000004000800078001e00900078
:103cd000008440001e007800f90b0700000c7800fb
:103ce0001e0fe800700020009e0f1000f4ff360049
:103cf0004f0478000080fa00000006000400fa007b
:103d0000000f78001107980000ce2f009e0f1000c2
:103d100002003d0000ce2f00000f7800003220008e
:103d20009e0f10000200340000322000000f7800c7
:103d30009e00900000ce2f00808f500002003d00ba
:103d400000ce2f00100798009e0090000032200047
:103d5000808f5000020034000032200010079800cd
:103d60001e007800bb0e07001e009000f60e070034
:103d70000080fa00000006001c00fa002a0107007b
:103d80000040eb0074080700a90e0700b90c0700fb
:103d9000419c2000c0472400cb0c0700419c200020
:103da00060412400c80c0700c0472400530d0700e1
:103db00060412400510d0700430b07000000eb0099
:103dc000100798009cff07000000a200614f6000f0
:103dd0006c004700b4ff07000000eb0020079800cc
:103de00095ff0700610060000004e0003f00320022
:103df0001e04e00007003a0010c0b300004f780036
:103e000094100700c04724003c0d070060412400c7
:103e1000540d07000000eb00300798000a0037003f
:103e20003e009000ec00470000004000e080780079
:103e300020032000808f500006003c003e009000d0
:103e40000000e800300798003e009000e70f5000a7
:103e5000f3ff34003e009000e80f500003003a00ea
:103e600010002000200798005f00370060ff2f003f
:103e7000f0a2880060ff2f0060a38800a00020004f
:103e800070a38800a0002000e0a388006c00470019
:103e9000a0009000c0122000808f5000520034001b
:103ea0006c0047009000900080f32f00808040005d
:103eb0006c004700110098006c004700a0009000c3
:103ec00080da2f00808040006c00470021009800bd
:103ed0006c004700b0009000c0f92f0080804000c7
:103ee0006c004700310098003f00370010c0b3005d
:103ef0009e4f100007003a000040eb00004f780092
:103f00005410070060412400fc0c0700c047240047
:103f1000140d07000000eb00300798000a0037007e
:103f20003e009000ec00470000004000e080780078
:103f300020032000808f500006003c003e009000cf
:103f40000000e800300798003e009000e70f5000a6
:103f5000f3ff34003e009000e80f500003003a00e9
:103f600010002000200798001f003700a00020004c
:103f7000f0a28800a000200060a3880060ff2f004e
:103f800070a3880060ff2f00e0a388006c0047004a
:103f9000d0009000c0122000808f5000120034002a
:103fa0006c004700c0009000c0f92f0080804000e6
:103fb0006c004700410098006c004700d000900062
:103fc00080da2f00808040006c004700510098008c
:103fd0006c004700e000900080f32f0080804000dc
:103fe0006c00470061009800e01520005007980021
:103ff000e0152000400798002e0090000000e0002f
:1040000027003a000000eb0030079800210037003d
:104010003e00900080004000e0452100008040000c
:10402000100178003e009000ec00470000004000c6
:10403000608078004480de000090b9008000780045
:104040005e00900001004000500798003e00900084
:1040500080004000e0462100008040001001780010
:104060003e009000ec0047000000400060807800b7
:104070004480de000090b900800078004e0090007f
:1040800001004000400798003e0090000000e8005a
:10409000300798003e009000e70f5000dcff34002e
:1040a000ce0090005e00900014ff070080a923005e
:1040b000010020000100070045ff37000800fa005a
:1040c00020079800310798006000b800008fbe00fc
:1040d0000400370010002000010020001e0f4000e7
:1040e0005e9748002e009000be009000be0f1000aa
:1040f000ae8f1800f7ff35000080fa0000000600c0
:104100000000fa00e6c2bf000080fb004600de00af
:10411000614060000081fb00e7c2bf000080fb003f
:104120000000d100614060000080fb000000400002
:1041300080007800e7c2bf00614060000080fb00a3
:10414000008040000000400080007800e6c2bf0010
:104150000080fb004700de000080fb000080400084
:1041600000004000000041000080fa00000006004e
:104170000200fa00e202a8000000eb00000f780045
:10418000010037001e0fe800f07022009e0f1000a3
:10419000fcff34006c010700150107000080fa00e5
:1041a000000006000400fa00000f780011079800d4
:1041b000d2b4ef00d034ef009e0090001e007800d3
:1041c000d00007000080fa00000006000000fa009e
:1041d000e202a9000080fa00000006000200fa00d6
:1041e000b301070042020700b9010700f1c0b300a4
:1041f000c0c3b300be010700004f7800b80107003c
:1042000000c4b3009e4f100003003a0010c0b3007a
:104210000af5b700020037000040eb000af5b700ce
:104220000080fa00000006000000fa00c4c2a900e5
:10423000c4e2a900c522a900c582a900c542a900ff
:10424000c5a2a900c5c2a900c5e2a900c0c2a900b3
:10425000c0e2a900c122a900c182a900c142a900ef
:10426000c1a2a900c1c2a900c1e2a900d022a9002f
:10427000cc22a900d042a900cc42a900e2e2a900c8
:10428000e302a900e802a900e822a900dee2a900f1
:10429000df02a900e402a900e422a900e202a900c9
:1042a000de02a900d602a900d622a900d642a900a2
:1042b000d662a900d682a900d6a2a900d6c2a900ba
:1042c000d6e2a900d202a900d222a900d242a900b6
:1042d000d262a900d282a900d2a2a900d2c2a900aa
:1042e000d2e2a900d1a2a900cda2a900e842a9006a
:1042f000e862a900e442a900e462a900de22a80065
:10430000dec2a800e4c2a800e4e2a800e502a8001a
:10431000e522a800d302a800d322a800d342a80017
:10432000d362a800d382a800d3a2a800d3c2a80059
:10433000d3e2a800a9ff07000ad5bf000004e000ef
:1043400001003200942207000080fa0000000600fd
:104350000000fa000ad5bf000080fb000080fa00d0
:10436000000006000c22ef000e22ef000ee2a90072
:104370000ec2a9008520a9008d20a8000de2a8008a
:1043800070002000a01088008540a9008d40a80082
:1043900081e0a900c0048000f1002f0000806000cf
:1043a0000155200000804000c00488000fe2a800f2
:1043b0000f42a800e633ef00e833ef0000000600ec
:1043c000809fbe008520a9000e22a9000e02ab002e
:1043d00008003200309f8000f003b200613a2100f3
:1043e0008100400012c2bf0080487800e633ec0034
:1043f000f6ff37004f00be0000400600309f8000ef
:10440000419f80000100500000000600319f8000a5
:10441000429f80000208e10008003200f203b2006f
:10442000613a210002814000924078000148780002
:10443000e833ec0010002000000006000000eb0054
:10444000000006008540a900809fbe00821f780002
:10445000ec14e20015003200e814e200160032000d
:10446000ea14e2001400320041a78000420020005c
:104470000f22af00feff370050a780000000e000d1
:10448000070032000000e900eab4b70031407800cc
:1044900010e2b7000201e900f5ff3a000200370020
:1044a000e834ef000100370041a788004f01780091
:1044b0004f00be00004006000000200060a78800fa
:1044c0004f0178004f00be0000400600ec14e200ef
:1044d000feff3a008d40a9008100e90051a7880045
:1044e000b04078008110880040a7880011002000ab
:1044f00061a788008d40a8000000060060a780002a
:1045000000000600811f7800821f78004100dd0056
:10451000030037004f017800cf007800000006004c
:10452000a1a688000001eb0001422f00810040009d
:1045300003003900020028008280400012002000a1
:104540004400f8003400f8004440a80000002000b7
:1045500002004000a001880000000000ea220200e2
:1045600000000000110078000000a100c0128800c7
:10457000ea22020000000000110078000000a10003
:10458000d0128800ea22020000000000110078002a
:104590000000a100e0128800ea22020000000000f2
:1045a000110078000000a100f0128800d4b4ed00e2
:1045b000d4b4ed0061a88800a1018000b1a68800f4
:1045c0003400f900000000004400f9008920a9002f
:1045d000d0ff3700e280400004003900a1018000d4
:1045e000e1804000a10188000100280000000600d1
:1045f000811f7800801f7800f0ff2700c01288001c
:10460000003020000000b300d0128800de02a900b4
:1046100000000000e002a900900109000000000075
:10462000e002a80041e2a8004602ae00feff37000b
:10463000f0ff2700c0128800004020003001b300c6
:10464000d01288004602ae00feff3700f0ff2700c0
:10465000c0128800001020000030a0000040a00020
:10466000d01288004602ae00feff3700f0ff2700a0
:10467000c012880000202000d01288004602ae0040
:10468000feff3700f0ff2700c01288000060200006
:104690000010a000d01288004602ae00feff3700d6
:1046a000f0ff2700c012880000702000f005b30062
:1046b000d01288004602ae00feff370001f0200055
:1046c00030128000010060000000e000fcff3a00b2
:1046d00030128000010060000000e000fcff3200aa
:1046e00030128000010060000000e000fcff3a0092
:1046f00030128000010060000000e000fcff32008a
:104700004662ae00020037008012800090128000e6
:1047100041e2a900f01e2000101288004362a800a8
:104720004342a8008920a900a8c0a800a8a0a90009
:10473000a880a9009120a80041e2a8004f007800bd
:10474000cf00780000000600801f78004022ef00b4
:104750004222ef004422ef004822ef004c22ef00fb
:10476000c6e2a800e5a2a900e582a800e5e2a9004a
:10477000e5c2a9004002a9004022a90040a2a90068
:104780004122a90040c2a8004102a9004142a9005b
:10479000f00e2000101288004362a9004342a800d6
:1047a00030002000201288004c02a8004802a80017
:1047b0008920a9009120a90041e2a9004f007800ba
:1047c000000006008920a900809fbe00829fbe00d5
:1047d0008012800090128000a0128000b012800031
:1047e000d014e20026003a00d414e2002400320083
:1047f0003400f8004400f8004440a800b0a680004f
:10480000a001880061a880004a2402000000000086
:10481000110078000000a100c01288004a240200a4
:1048200000000000110078000000a100d0128800f4
:104830004a24020000000000110078000000a100de
:10484000e01288004a2402000000000011007800f5
:104850000000a100f0128800d4b4ed00d4b4ed0043
:1048600061a88800a1018000b1a688004400f90079
:104870003400f9004f01be004f00be0000400600aa
:10488000d234ef00d0b4ef004f01be004f00be00a5
:1048900000400600e280400004003900a1018000d1
:1048a000e1804000a101880001002800000006000e
:1048b0000000fa00680007000080fa00000006000f
:1048c0000000fa00810007000080fa0000000600e6
:1048d0000000fa00ac0007000080fa0000000600ab
:1048e0000000fa00ae0007000080fa000000060099
:1048f0000400fa0020479800314798000040eb0080
:10490000004f78001800370010c0b300004f780047
:10491000a90007001e4f60002e409000c101070053
:104920001e4f60003e409000be0107001e4f600019
:10493000c30007001e4f60002e4090000040e800ba
:10494000b80107001e4f60000e00e8005f0107007d
:104950001e4f60002a010700db0007001e04e00074
:1049600003003a00620007001e04e000e6ff320088
:104970001e4090000000fb000080fa0000000600ce
:104980000600fa00204798003147980042479800f7
:104990000040eb00004f78001200370010c0b30059
:1049a000004f7800840007001e4f60002e409000ea
:1049b0009c0107001e4f60003e40900099010700d7
:1049c0001e4f60004e409000960107001e4f600091
:1049d000bd0007001e4f60001e04e00003003a0007
:1049e000430007001e04e000ecff32001e00fb0045
:1049f0000080fa00000006000000fa000000370006
:104a000006c2bf00614060000004e000fcff3a0005
:104a100006c2bf00644060000004e000f8ff3a00f6
:104a200006c2bf00684060000004e000f4ff3a00e6
:104a300006c2bf00704060000004e000f0ff3a00d2
:104a400009c2bf000044b2000004e000ecff3a00dd
:104a50000080fa00000006000400fa00600920004f
:104a60002010880007e2a90007e2a80085c0a9007d
:104a700085a0a900b10920009140780080cfb30043
:104a800000c060005040b3009be0b7008da0a900bb
:104a90000071220001002000008fbe0004003700da
:104aa0000080eb008080eb001e0f40005e97480006
:104ab0001e00be00e00f5000e08f5800f8ff3a00e3
:104ac000100020000080fa00000006000000fa003c
:104ad00007e2a90085c0a90085a0a9008dc0a90092
:104ae0008da0a900100020000080fa000000060040
:104af0000400fa006000b800008fbe0007e2a900c1
:104b000085c0a90085a0a9008da0a9000000eb0028
:104b1000401088000071220001002000008fbe00bc
:104b2000040037000080eb008080eb001e0f400087
:104b30005e9748001e00be00e00f5000e08f580056
:104b4000f8ff3a00c4ff07000f00070000712200c1
:104b500001002000008fbe00040037000080eb0041
:104b60008080eb001e0f40005e9748001e00be00d4
:104b7000e00f5000e08f5800f8ff3a0010002000ce
:104b80000080fa00000006000000fa0085c0a900bd
:104b90008dc0a800100020000080fa000000060070
:104ba0000000fa0085c0a9008dc0a90010002000f7
:104bb0000080fa00000006000600fa0010c0b300f2
:104bc000d8f4b70008c2bf00704060000004e000e5
:104bd000160032000602a800007122000100200029
:104be000008fbe000a003700d8d4bf000004e000e8
:104bf00003003a0010002000200798000d00370045
:104c00000080eb008080eb001e0f40005e974800a4
:104c10001e00be00e00f5000e08f5800f2ff3a0087
:104c20008000eb0021079800020037000000eb0035
:104c3000200798002e0090000080fa000000060077
:104c40000600fa0060c0b300d8f4b70008c2bf0085
:104c5000684060000004e000160032000622a80050
:104c60000071220001002000008fbe000a00370002
:104c7000d8d4bf000004e00003003a001000200078
:104c8000200798000d0037000080eb008080eb00cb
:104c90001e0f40005e9748001e00be00e00f50004f
:104ca000e08f5800f2ff3a008000eb0021079800e7
:104cb000020037000000eb00200798002e00900053
:104cc0000080fa00000006000600fa0050c0b300a1
:104cd000d8f4b7000642a8000071220001002000ad
:104ce000008fbe000a003700d8d4bf000004e000e7
:104cf00003003a0010002000200798000a00370047
:104d00000080eb008080eb001e0f40005e974800a3
:104d10001e00be00e00f5000e08f5800f2ff3a0086
:104d20008000eb00210798002e0090000080fa0020
:104d3000000006000600fa0030c0b300d8f4b70047
:104d400006c2bf00614060000004e00010003a00ad
:104d500006c2bf00644060000004e0000c003a009e
:104d600006c2bf00684060000004e00008003a008e
:104d700006c2bf00704060000004e00004003a007a
:104d800006c2bf00624060000004e0000300320081
:104d90000000eb00200798001600370006a2a900cb
:104da0000682a8000071220001002000008fbe00d2
:104db0000a003700d8d4bf000004e00003003a0026
:104dc00011002000210798000a0037000080eb0046
:104dd0008080eb001e0f40005e9748001e00be0062
:104de000e00f5000e08f5800f2ff3a008000eb0027
:104df000210798002e0090000080fa0000000600b5
:104e00000600fa0030c0b300d8f4b70006c2bf00f5
:104e1000614060000004e00010003a0006c2bf00dc
:104e2000644060000004e0000c003a0006c2bf00cd
:104e3000684060000004e00008003a0006c2bf00bd
:104e4000704060000004e00004003a0006c2bf00a9
:104e5000624060000004e000030032000000eb004c
:104e6000200798001600370006a2a8000682a800b6
:104e70000071220001002000008fbe000a003700f0
:104e8000d8d4bf000004e00003003a001100200065
:104e9000210798000a0037000080eb008080eb00bb
:104ea0001e0f40005e9748001e00be00e00f50003d
:104eb000e08f5800f2ff3a008000eb0021079800d5
:104ec0002e0090000080fa00000006000a00fa00a0
:104ed00030079800007122000100200010079800a0
:104ee000210798000040eb00004f780040c0b3005d
:104ef000d8f4b700007122000100200010079800cc
:104f0000210798001d00370006c2bf006140600005
:104f10000004e00013003a0006c2bf0064406000d5
:104f20000004e0000f003a0006c2bf0068406000c5
:104f30000004e0000b003a0006c2bf0070406000b1
:104f40000004e00007003a0009c2bf000044b200bc
:104f50000004e00003003a0010c0b300004f7800e6
:104f60000b0037001e009000ae0090006100500062
:104f7000e080580010079800210798001e0090005c
:104f8000ae009000e00f5000e08f5800deff3a00c6
:104f90001e04e00003003a000000eb004007980008
:104fa0001d0037000662a800006a280011002000da
:104fb000100798002107980010003700d8d4bf00d0
:104fc0000004e00007003a000010800080407800f4
:104fd0003e00900001487800100020004007980033
:104fe0000d0037001e009000ae00900061005000e0
:104ff000e080580010079800210798001e009000dc
:10500000ae009000e00f5000e08f5800ebff3a0038
:105010000000eb00400798004e0090000080fa006e
:10502000000006000800fa004047980020c0b300c6
:10503000d8f4b7004e4090000000fb00101088002c
:105040000071220001002000008fbe000a0037001e
:10505000d8d4bf000004e00003003a001000200094
:10506000300798000a0037000080eb008080eb00da
:105070001e0f40005e9748001e00be00e00f50006b
:10508000e08f5800f2ff3a008000eb0031079800f3
:105090003e0090000080fa0000000600801f7800ab
:1050a0003400f80000002000a00188000000fa0091
:1050b00085c0a9000040eb00d8f4b7000080fa00da
:1050c0003400f9004f007800004006000000fa00ac
:1050d00055fc07000040eb009f030700c1010700db
:1050e00031020700feff37000a00fa00100798009f
:1050f0000000eb00000f780095fc07000004e000c2
:1051000038003200414e21009140780000c4b300c5
:1051100080cf500006003a00a249210081492100b9
:1051200060492100401f07000040eb00e4f4b70095
:105130001e009000300798003e009000e10f5000e4
:10514000110032003e009000e10f500004003900d1
:105150003e009000e20f5000150032001e003700a4
:10516000c1a4800010a48000008f50001e007800b1
:10517000c480de001e0078004680de008080500083
:10518000210798004c003700b1a4800000a48000e3
:10519000008f50001e007800c480de001e007800e2
:1051a0004680de00808050002107980042003700d2
:1051b000d1a48000e0a78000008f50001e0078007e
:1051c000c480de001e0078004680de008080500033
:1051d0002107980038003700a029200020079800f8
:1051e000350037001e009000400798004e009000e8
:1051f000e10f5000140032004e009000e10f50000b
:10520000040039004e009000e20f50001b003200f5
:10521000270037009e00900012a780002003200086
:105220000088b900020040008000400040f32000e8
:10523000008040009000780000a480008080500032
:10524000210798001c0037009e00900012a78000e4
:10525000200320000088b9000200400080004000c8
:1052600040f32000008040009000780010a48000ef
:1052700080805000210798000f0037009e009000aa
:1052800012a78000200320000088b900020040001f
:105290008000400040f32000008040009000780033
:1052a000e0a78000808050002107980002003700ae
:1052b000a0292000200798002e0090000080fa000e
:1052c000000006001400fa005007980061079800db
:1052d0006000b80030079800410798001cfc0700e8
:1052e0000004e00056003200414e21009140780059
:1052f00000c4b30080cf500006003a00a24921004c
:105300008149210060492100c71e07000040eb00d1
:10531000e4f4b700fad4bf000004e0001800320043
:105320005e009000000f98000e089000e10f500002
:105330000a0032000e089000e10f5000040039000e
:105340000e089000e20f50000700320009003700fd
:10535000ea1e07007007980073003700d71e070089
:105360007007980070003700f41e0700700798005f
:105370006d003700a0292000700798006a003700f0
:105380005e009000100f98001e089000e10f500082
:10539000120032001e089000e10f50000400390096
:1053a0001e089000e20f5000170032002100370065
:1053b000c0a48000000f78001e007800c480de00ca
:1053c0001e0078004680de008080500000802000b3
:1053d000808040007107980053003700b0a480001f
:1053e000000f78001e007800c480de001e007800e8
:1053f0004680de00808050000080200080804000d9
:105400007107980048003700d0a48000000f780092
:105410001e007800c480de001e0078004680de009a
:10542000808050000080200080804000710798003c
:105430003d003700a0292000700798003a0037008f
:105440005e009000e20f500031003e006e009000c0
:105450000000e0002e003200ee009000200320004b
:10546000808f50002a003e000000eb0020079800cb
:1054700011a780006e009000008050003003b00043
:1054800022032000110009000280d8008000fd00e6
:10549000100798001a003700de0090001e019000ef
:1054a000200320000088b900020040008000400076
:1054b00040f3200000804000100078006101b90036
:1054c0003e009000ce009000000041008180490025
:1054d00030079800410798002e0090000000e80077
:1054e000200798001e0090000000e8002203200022
:1054f000110009000200d8008000fd00100798008c
:10550000ae0090006e009000808f5000e2ff3900e6
:105510006e0090006101b8003e009000ce00900047
:1055200008ed0700700798007e0090000080fa00e8
:10553000000006000000fa0085fb07000004e00000
:105540000a0032000000eb00e7fe070020a48800fc
:1055500010002000e4fe070030a488002000200096
:10556000e1fe070040a4880015003700510020002c
:105570000000eb0053ff07008000780000a48000cb
:105580000080500020a4880051002000100020005e
:105590004cff07008000780010a4800000805000bd
:1055a00030a48800510020002000200045ff0700a3
:1055b00080007800e0a780000080500040a48800b0
:1055c0000080fa00000006000000fa00889fbe007c
:1055d0008a9fbe00d7ff070020a480006103b900a6
:1055e00020a480006102b9008600780004007800e1
:1055f000000db80005b0b9000b01780000014100b2
:1056000007a0b900000141008205780030a48000a5
:105610006104b90030a480006103b90088007800fb
:1056200006007800000ab80007c0b900050178003c
:105630000001410009b0b900000141008202780078
:105640000a0542008b854a0040a480006104b9002d
:1056500040a480006103b90088007800060078004b
:10566000000ab80007c0b900050178000001410038
:1056700009b0b90000014100820278000a0042002e
:105680008b804a0066eb0700bfec070050a488003f
:1056900061a4880020a480006103b90020a48000d8
:1056a0006102b9008600780004007800000db8009f
:1056b00005b0b9000b0178000001410007a0b90056
:1056c000000141008205780030a480006104b90027
:1056d00030a480006103b9008800780006007800db
:1056e000000ab80007c0b9000501780000014100b8
:1056f00009b0b90000014100820278000a004200ae
:105700008b804a0046eb07009fec07000004be00b8
:1057100040a48000cf80de0041eb07000801be00fe
:105720006aeb0700c209230053262c00c6eb0700d2
:1057300002002000432b2400f8eb070090a488000f
:10574000a1a4880090a48000a1a4800002002000f1
:10575000030a240077ec07000000e0000800350091
:1057600090a48000a1a48000020020000332240045
:1057700072ec07000000e00001003c00040037006c
:105780006000b80070a4880081a488001100370070
:1057900030a48000cf80de0021eb07000004be00b3
:1057a00020a48000cf80de001deb07000801be00b2
:1057b00046eb0700c209230053262400a2eb070092
:1057c0000200200043332400d4eb070070a48800bb
:1057d00081a488004f05be004f04be000080fa007f
:1057e000000006000000fa0010c0b300faf4b70091
:1057f000210320000000eb00b2fe070000a4880097
:105800002103200010002000aefe070010a4880035
:10581000cffa07000004e000070032002103200057
:1058200020002000a7fe070001002c00010040001e
:10583000e0a7880006003700210320002000200098
:10584000a0fe070001d02f0001004000e0a7880063
:105850000040eb00faf4b7000080fa0000000600f8
:105860000c00fa00881f78000004780056ff07003b
:1058700050a4800061a48000008fbe0070a480004e
:1058800081a48000200798003107980090a4800030
:10589000a1a4800040079800510798008e0078006e
:1058a000080078001101be000288be0064004000bc
:1058b000e48040001101be000288be006400400088
:1058c000e48040001101be000288be00080078009c
:1058d0004f0478000080fa00000006000000fa0083
:1058e00039ff070090a48000a1a480000080fa0086
:1058f000000006000000fa0033ff070070a48000db
:1059000081a480000080fa00000006000000fa0078
:105910002dff070050a4800061a480000080fa00e1
:10592000000006000600fa00881f780000047800d6
:1059300000ff070020a48000000f780030a4800042
:105940001007980040a48000200798001e00be00a9
:10595000008cbe00ae009000210498000800780082
:105960004f0478000080fa00000006000000fa00f2
:10597000f0fe070020a480000080fa00000006006e
:105980000000fa00ebfe070030a480000080fa005f
:10599000000006000000fa00e6fe070040a48000b8
:1059a0000080fa00000006001600fa006000b8004f
:1059b000008fbe00cfff0700008fbe00f0a3800065
:1059c000cf80de0096ea07001e01be0052eb070002
:1059d000b7eb0700200f98002e0890000000e000b1
:1059e00003003d00ae0890008100ea00210f9800fe
:1059f0002e0990006110b90089ea0700020020001a
:105a0000030a2400cdeb07000000e00001003c0089
:105a10004f013700c5e2a900c5c2bf000080fb00ee
:105a20004700de00614060004601dd00512c20008f
:105a300091407800f0cbb30000c0600002407000dd
:105a4000c5e2b700c5c2bf000080fb004600de0013
:105a500061406000614060004501dd00512c200084
:105a600091407800f0cdb30000c0600002407000ab
:105a7000c5e2b700c5c2bf000080fb004500de00e4
:105a800061406000614060004201dd00512c200057
:105a900091407800b0cfb30000c0600002407000b9
:105aa000c5e2b700c5c2bf000080fb004200de00b7
:105ab00061406000614060004401dd00512c200025
:105ac00091407800f0ceb30000c06000024070004a
:105ad000c5e2b700c5c2bf000080fb004400de0085
:105ae000614060006140600000414000512c200096
:105af00091407800d0cfb30000c060000240700039
:105b0000c5e2b700c5c2bf000080fb000000d100a5
:105b100061406000c700dd00c4c2bf000074a10086
:105b200001407000c4e2b700c4c2bf000080fb00a7
:105b30004700de00614060004601dd00412c20008e
:105b400091407800f0cbb30000c0600002407000cc
:105b5000c4e2b7000040eb002057980002002c0080
:105b6000833a24001e00be0074eb07000000e00032
:105b700001003c000200370011c0b300215798001b
:105b80000041eb001257980002002000431b240044
:105b90001e00be0067eb07000000e00001003400bb
:105ba0000200370010c0b30010579800ae509000ac
:105bb0001e51900002c070000004a2000004e0002a
:105bc00011003a000040eb00005798000200280046
:105bd000634224001e00be00a0eb07000000e000ae
:105be00001003a000200370011c0b30001579800cd
:105bf0000e5090000004a2000004e00002003a00f1
:105c0000c4c2a800cf0037000041eb00724f9800db
:105c100002002000431b24001e00be0047eb0700cb
:105c20000000e00001003c000200370010c0b3009b
:105c3000704f98007e4890000004a2000004e0002d
:105c400011003a008040eb00614f980002002000f4
:105c5000732824001e00be0036eb07000000e000a1
:105c6000010034000200370012c0b300624f9800f8
:105c70006e4890000004a2000004e00002003a0018
:105c8000c5e2a800af0037000040eb00504f98007d
:105c900002002000732824001e00be0027eb07002e
:105ca0000000e00001003c000200370011c0b3001a
:105cb000514f98005e4890000004a2000004e000ec
:105cc00011003a000041eb00424f98000200200012
